:100000000C945B000C94B3000C9499000C94990030
:100010000C9499000C9499000C9499000C949900FC
:100020000C9499000C9499000C9499000C94F00194
:100030000C9416020C9499000C9499000C9499005D
:100040000C9499000C9499000C9491020C949900D2
:100050000C9499000C9499000C9499000C949900BC
:100060000C9499000C949900464154414C204552FF
:10007000524F523A204241444953525F766563746D
:100080002063616C6C65642C20756E70726F6365A3
:100090007373656420496E746572727570742E0A8C
:1000A00053544F5020457865637574696F6E2E0AFE
:1000B0000000C500DD00832D8093350684B7809352
:1000C000360614BE0FB6F894A8958091600088613A
:1000D00080936000109260000FBE11241FBECFEF0E
:1000E000D8E0DEBFCDBF11E0A0E0B1E0E2E1F1E297
:1000F00002C005900D92A63DB107D9F726E0A6ED06
:10010000B1E001C01D92A533B207E1F710E0CBE5E5
:10011000D0E004C02197FE010E948A0DC935D107A5
:10012000C9F70E949B000C9487100E94C0000C9499
:1001300087100C94B60A0E94CF020C94EE025298DB
:100140005D9A559AE9E6F0E0808182608083808143
:100150008E7F8083E89A7894089564EF71E080E060
:1001600090E00C94CB008F938FB78F939F938BB1BC
:1001700090E289278BB99F918F918FBF8F911895AE
:100180000E949F000E94AD00FDCF70E060E086ED10
:1001900091E00C94E3009B01AC01A8EEB3E00E9457
:1001A0007F0D22E096958795779567952A95D1F7EB
:1001B00020E030E0A9010C94710570E060E080E27D
:1001C00092E00C94E300FC017183608308950FB604
:1001D000802DF894807890E0089578940FB6802D63
:1001E000807890E00895FF920F93F82E0FB7087F64
:1001F000F02AFFBE0F91FF90089580916A0290E06F
:100200000895982F9F7021E030E001C0220F9A9549
:10021000EAF7623001F1633029F0662371F08FEF65
:100220009FEF089582958F70869FF001112481A120
:10023000282B21A390E080E0089582958F7093E0B1
:10024000899FF001112481A12095822381A382A19D
:10025000282322A3EFCF82958F7093E0899FF0012E
:10026000112491A1822F8095892381A382A1282B1B
:10027000F0CF21E020936A02E0910201F0910301A6
:100280004081BC016F5F7F4F21E030E001C0220F51
:100290006A95EAF7209524232083E0910601F091E6
:1002A0000701BC0180910801909109010995809195
:1002B000DB059091DC05892B31F00E9452041092ED
:1002C0006A020E94850B10926A0208958F929F9293
:1002D000AF92BF92CF92DF92EF92FF920F931F9354
:1002E000892BD9F4E6E3F1E080E0C12C94E2D92E29
:1002F00094EFE92EF12C91918F5F4601570104C0D4
:10030000B694A794979487949A95D2F784169506F5
:10031000A606B70679F0853071F78FEF9FEF1F9132
:100320000F91FF90EF90DF90CF90BF90AF909F9094
:100330008F900895E0910001F091010110821182E7
:1003400012821582148230930701209306011093C4
:1003500009010093080180930A01818390E080E005
:10036000DECF623071055CF52CE0289FF001299FFB
:10037000F00D1124E050FF4FA081B181CB01049614
:10038000880F991FA80FB91F11965C934E93A481F3
:10039000B5812C916F5F7F4F81E090E001C0880FA5
:1003A0006A95EAF7982F909592239C930280F381A7
:1003B000E02D9081892B808381E090E008958FEF7C
:1003C0009FEF08952CE0289FF001299FF00D112444
:1003D000E050FF4F0190F081E02D848195810895D8
:1003E0001F920F920FB60F9211242F933F934F93AA
:1003F0005F936F937F938F939F93AF93BF93EF938D
:10040000FF9390E080E00E943901FF91EF91BF914E
:10041000AF919F918F917F916F915F914F913F919C
:100420002F910F900FBE0F901F9018951F920F9253
:100430000FB60F9211242F933F934F935F936F93B7
:100440007F938F939F93AF93BF93EF93FF9381E03D
:1004500090E00E943901FF91EF91BF91AF919F9180
:100460008F917F916F915F914F913F912F910F905D
:100470000FBE0F901F9018950F931F93CF93DF938C
:10048000E901892BE1F530936C0220936B02109304
:100490006E0200936D021092C1001092C00086E0BF
:1004A0008093C200DB01CA0180589B47A14EBF4F19
:1004B00023E0880F991FAA1FBB1F2A95D1F79A0125
:1004C000AB0164E0220F331F441F551F6A95D1F71B
:1004D000BC01CD010E945D0D215031093093C50052
:1004E0002093C40088E9CD2B09F488E08093C100F3
:1004F00090E080E0DF91CF911F910F9108958FEFF1
:100500009FEFF8CFFB01460F571FE417F50709F4DB
:1005100008958091C00085FFFCCF81918093C60033
:10052000F4CF1F920F920FB60F9211242F933F9387
:100530004F935F936F937F938F939F93AF93BF93EB
:10054000EF93FF9381E080936A026091C600E0918F
:100550006B02F0916C0280916D0290916E02099590
:100560008091DB059091DC05892B31F00E945204CB
:1005700010926A020E94850B10926A02FF91EF911D
:10058000BF91AF919F918F917F916F915F914F91AB
:100590003F912F910F900FBE0F901F901895E1E69D
:1005A000F0E080E8808310820E94060C0E94A80A76
:1005B0000E94160C0C94ED000E94DF0B8BE391E07F
:1005C0009F938F930E949F0D0E94C0000F900F90E9
:1005D00090E080E008950E94A70AFDCF0E94E70006
:1005E000C0900C01D0900D01F12CE12C0BEE12E02B
:1005F0002CE030E04FE060E870E08FE692E00E948F
:100600008E04C0900E01D0900F010CED12E02CE092
:1006100030E047E060E872E08FEE92E00E948E04E6
:100620000E941B0B0895EB0120916F05309170051E
:10063000232B61F521E030E03093700520936F05A6
:10064000833081F40EB6902D0DB6802D9F938F933D
:1006500080E891E09F938F930E949F0D0F900F90E1
:100660000F900F90DF93CF9387E991E09F938F9343
:100670000E949F0D83EB91E09F938F930E949F0DAB
:100680000F900F900F900F900F900F900E94E70027
:100690000E9412030E94A40A1092DC051092DB054E
:1006A000A0919705B0919805209171053091720540
:1006B00090E080E020FF28C0880F991FFC01EB58D4
:1006C000FA4F0190F081E02D0190F081E02D3697F6
:1006D000EA17FB07E9F0109741F012968C911297F8
:1006E0008A3019F48BE012968C938AE0828384819D
:1006F00095819093960580939505F0939805E093E6
:10070000970581E090E00895369527950196D2CF20
:1007100090E080E008950F931F93CF93DF93FC0147
:1007200082816A3008F443C08A30C0F5CF01069652
:10073000A381B0E0AA0FBB1FAB58BA4FCD91DC919B
:100740001197209789F12881398137832683CD91AC
:10075000DC911197998388838D939C93238181E009
:1007600090E002C0880F991F2A95E2F7092E000C2D
:10077000AA0BBB0B009171051091720520917305B6
:1007800030917405802B912BA22BB32B8093710594
:1007900090937205A0937305B09374056283DF9103
:1007A000CF911F910F91089597838683D5CF8A307B
:1007B000A8F3A381B0E0AA0FBB1FAB58BA4FCD91ED
:1007C000DC911197209739F088819981C817D90752
:1007D00039F51D921C922381A22FB0E0AA0FBB1FF6
:1007E000AB58BA4F8D919C91892BC1F681E090E076
:1007F00002C0880F991F2A95E2F780959095092EDF
:10080000000CAA0BBB0B0091710510917205209191
:1008100073053091740580239123A223B323B6CFAF
:10082000DC018D919C9199838883D5CFE0919705C8
:10083000F091980522812A3028F023812817190683
:1008400071F068F00E94FD00892B39F081E090E0A2
:100850009093DC058093DB0508950C941F0B08959D
:100860000E94E700E0919505F0919605EE0FFF1FBD
:10087000E756FA4F118210828091DD059091DE05D6
:1008800001979093DE058093DD0560E080919705E8
:10089000909198050E948B031092980510929705ED
:1008A0000E941B0B0E94E700E0919705F0919805CC
:1008B00022812A3070F0E381F0E0EE0FFF1FEB5849
:1008C000FA4FA081B181109721F02D913C91318395
:1008D00020830E94F3000C941F0BFB0122812A301D
:1008E00028F061EC71E083E00E9413036381AF01A3
:1008F0004A5F5F4FDC012D913C912115310531F4A8
:1009000037832683FC01518340830895D9011697CC
:1009100013967C916717A0F3C901ECCF2F923F92F9
:100920004F925F926F927F928F929F92AF92BF92FF
:10093000CF92DF92EF92FF920F931F93CF93DF93AB
:1009400000D000D0CDB7DEB75C014B0149832A83CC
:1009500028013701160104EE1FEF40310CF084C06E
:100960006B012AE1C21AD1088C0D9D1D9C838B83DB
:100970009A8193FD22C0F501B182A08208C0F18363
:10098000E08332968B819C81E817F907C0F30E94BF
:10099000E7007C01EBE9F5E001E010E08191919145
:1009A000892BB1F00F5F1F4F01321105B9F7C70155
:1009B0000E94F3000FEB1FEF57C0F501E3CF61E09A
:1009C0008B819C810E948B03C7010E94F3004CC065
:1009D000F801EE0FFF1FE756FA4F8B819C81918340
:1009E0008083FC01158304839601A501B301C20134
:1009F0000E94EE0AEB81FC8191838083B58AA48AF0
:100A0000918E808E378A268A2981238312821782CB
:100A1000168211861086138612861586148617860E
:100A200016868FEF9FEF918B808B138A128A8091AD
:100A3000DD059091DE0501969093DE058093DD053E
:100A40008A8180FDBCCF6BE08B819C810E948B03EF
:100A5000FA81F2FDB9CFC7010E94F3002981822FEC
:100A6000220F990B0E941604C8010F900F900F904F
:100A70000F90DF91CF911F910F91FF90EF90DF903A
:100A8000CF90BF90AF909F908F907F906F905F902E
:100A90004F903F902F9008950C94610CCF92DF926D
:100AA000EF92FF92CF93DF936B017C0190E080E0A7
:100AB0000E94E201EC01EE24FF2490E080E00E941D
:100AC000E2018C1B9D0BB0E0A0E08C159D05AE05EE
:100AD000BF0598F3DF91CF91FF90EF90DF90CF901B
:100AE00008954F925F926F927F928F929F92AF92F2
:100AF000BF92EF92FF920F931F93CF93DF93CDB7E7
:100B0000DEB760970FB6F894DEBF0FBECDBF4B01C6
:100B10005C0129013A010E94FD00892B11F1452851
:100B20004628472829F061EC71E083E00E94130316
:100B3000C501B4010E944E0560960FB6F894DEBF61
:100B40000FBECDBFDF91CF911F910F91FF90EF901E
:100B5000BF90AF909F908F907F906F905F904F90DD
:100B60000895188A1F868CE495E09C878B877E0108
:100B70008FE0E80EF11CFE86ED861F82188619862E
:100B80001A861B821C821D821E8261E070E0C701F2
:100B90000E941C0C93018201B501A401CE010196B3
:100BA0000E942E0A61E070E0C7010E941C0CC4CFB5
:100BB000CF92DF92EF92FF920F931F93C090E505C3
:100BC000D090E605E090E705F090E80590E080E041
:100BD0000E94E2010091E5051091E6052091E705EC
:100BE0003091E8050C151D052E053F0539F7B0E0DD
:100BF000A0E0BC01CD01602B712B822B932B1F91A8
:100C00000F91FF90EF90DF90CF9008958F929F9279
:100C1000AF92BF92CF92DF92EF92FF920F931F930A
:100C2000CF93DF938C01EB010E94D8054B015C014F
:100C3000C090E905D090EA05E090EB05F090EC0556
:100C40000E94D805681579058A059B0568F3F801A7
:100C50006083718382839383C882D982EA82FB8214
:100C6000DF91CF911F910F91FF90EF90DF90CF9088
:100C7000BF90AF909F908F9008952091ED05309197
:100C8000EE05232B39F4AB0170E060E090E080E0EA
:100C90000C94B10108950F931F93CF93DF93DC0160
:100CA000E091DF05F091E005CFEDD5E0309719F147
:100CB000068117812085318516964D915D916D9144
:100CC0007C9119970417150726073707F0F00417CA
:100CD00015072607370779F40281138124813581AE
:100CE00012964D915D916D917C911597401751072A
:100CF0006207730750F41196FC93EE93B983A883AF
:100D0000DF91CF911F910F910895EF010190F08134
:100D1000E02DCCCF0F931F93CF93DF938091E50508
:100D20009091E605A091E705B091E80511968093B2
:100D3000E5059093E605A093E705B093E80580915B
:100D4000E5059091E605A091E705B091E805892BAE
:100D50008A2B8B2B99F48091E9059091EA05A0915B
:100D6000EB05B091EC050196A11DB11D8093E9053D
:100D70009093EA05A093EB05B093EC05E091E105B3
:100D8000F091E205F093E405E093E3051092E205AB
:100D90001092E105A091DF05B091E005ED0190E032
:100DA00080E0209729F41092E0051092DF0515C02D
:100DB0004091E9055091EA056091EB057091EC05D1
:100DC0000E811F81288539854017510762077307F7
:100DD000B8F5D093E005C093DF05009761F1EC0111
:100DE00019821882309709F461C0109789F0028146
:100DF00013812481358112964D915D916D917C9185
:100E000015979A2F8B2F401751076207730710F021
:100E10009E2F8F2FC92F282FD22F0190F081E02DE8
:100E20000D90BC91A02D309721F5B983A8839093A4
:100E3000E3058093E405DF91CF911F910F91089511
:100E40000091E5051091E6052091E7053091E80550
:100E50004A815B816C817D8144275527401751076A
:100E60006207730709F0B5CFCE010990D881C02D74
:100E700098CF109719F4F983E883D9CF02811381B1
:100E80002481358112964D915D916D917C911597DC
:100E9000401751076207730730F43A2F2B2F38831E
:100EA0002983C32FB9CF3E2F2F2FF9CFB093E4055D
:100EB000A093E305C0CF8F929F92AF92BF92CF9243
:100EC000DF92EF92FF9281E090E09093EE058093A5
:100ED000ED058091E3059091E405892B61F40E9472
:100EE0008A0690E080E00E94E2010196D1F3C12CD5
:100EF000D12C760107C090E080E00E94E2016C01F5
:100F0000F12CE12CE091E305F091E4053097E9F450
:100F100090E080E00E94E201B0E0A0E04496A11DD4
:100F2000B11D8C159D05AE05BF0508F069C00E9476
:100F30008A0690E080E00E94E201B0E0A0E0C816DE
:100F4000D906EA06FB06A8F3D2CF82809380A4805C
:100F5000B58090E080E00E94E201B0E0A0E08C1556
:100F60009D05AE05BF0590F0B501A4016627772762
:100F700084179507A607B70748F4481B590B6A0B57
:100F80007B0B443151056105710510F6E091E305D5
:100F9000F091E40582809380A480B58090E080E0A9
:100FA0000E94E201B0E0A0E08C159D05AE05BF05F2
:100FB00038F0AA24BB2488159905AA05BB0530F38F
:100FC000A091E305B091E4058D919C9111979093C8
:100FD000E4058093E30512961D921D921D921C92CA
:100FE000159716961D921D921D921C9219971A968E
:100FF000ED91FC911B971C968D919C91099582CF48
:10100000E091E305F091E405309729F18280938027
:10101000A480B58084E1881A9108A108B1080E94D3
:10102000D8056C5E7F4F8F4F9F4F86169706A80698
:10103000B90608F467CF1092EE051092ED05C501D0
:10104000B401FF90EF90DF90CF90BF90AF909F9052
:101050008F900C943D0690E080E00E94E2014C01EC
:10106000B12CA12C8C149D04AE04BF0418F40E9472
:101070008A063DCFD5014496A11DB11DAA27BB27E5
:1010800088159905AA05BB0560F490E080E00E94F0
:10109000E201B0E0A0E088159905AA05BB05A8F714
:1010A000E6CF88248A94982CA12CB12CC4CFCF935E
:1010B000DF93FC01A091E305B091E405C3EED5E018
:1010C000A817B90731F5ED91FC91F093E405E09391
:1010D000E3056FEF7FEF80E090E0309741F06281B1
:1010E0007381848195816451710981099109DF912E
:1010F000CF910C943D06EA17FB0739F4808191816A
:1011000099838883DF91CF910895ED010D90BC9173
:10111000A02D109781F7A091E105B091E205C1EEF5
:10112000D5E0109781F4A091DF05B091E005CFEDF7
:10113000D5E0109739F3EA17FB0701F3ED010D90A5
:10114000BC91A02DF6CFEA17FB07C1F2ED010D907F
:10115000BC91A02DE6CF0F931F9310E000E02BE58C
:1011600037E040E950ED63E070E090E080E00E94FD
:1011700066016FEF7FEFCB011F910F910C943D063D
:101180004F925F926F927F928F929F92AF92BF9297
:10119000CF92DF92EF92FF920F931F93CF93DF9343
:1011A000EC016A017B010E94D8054B015C011982A8
:1011B0001882D701C60188199909AA09BB0989971C
:1011C000A105B10580F5EE24FF2490E080E00E94A7
:1011D000E201B0E0A0E0C816D906EA06FB06A8F3D3
:1011E00090E080E00E94E201B0E0A0E08C159D0557
:1011F000AE05BF05A8F3EA85FB858C859D8509951D
:1012000090E080E0DF91CF911F910F91FF90EF90E0
:10121000DF90CF90BF90AF909F908F907F906F9016
:101220005F904F9008950E94E7008C018A819B8116
:10123000AC81BD81892B8A2B8B2B41F48E819F81C0
:10124000A885B985892B8A2B8B2B19F0CE010E949A
:101250005708CA82DB82EC82FD824090E9055090FB
:10126000EA056090EB057090EC05C701B60164518A
:10127000710981099109681579058A059B0568F14D
:101280004E825F82688679864090E9055090EA0533
:101290006090EB057090EC052E813F814885598563
:1012A000421653066406750688F02091E5053091D4
:1012B000E6054091E7055091E8052B013C014424E7
:1012C0005524241535054605570569F0CE010E94C1
:1012D0004B06C8010E94F30093CF2FEF421A520A27
:1012E000620A720ACDCFAA24BB24E091E305F091F3
:1012F000E405A3EEB5E086169706A806B906F8F051
:10130000E091E105F091E205A1EEB5E0309749F0FA
:101310004281538164817581C416D506E606F706BD
:1013200028F4F983E883CD93DC93D3CFDF010190D8
:10133000F081E02DEBCFDF010190F081E02D3097BF
:1013400049F082809380A480B580C814D904EA044F
:10135000FB0488F7F983E883CD93DC932091E305C0
:101360003091E405C217D30709F0B3CF0E943D06C0
:10137000B0CF0F931F93CF93DF93EC010E94E70050
:101380008C018A819B81AC81BD81892B8A2B8B2B1F
:1013900041F48E819F81A885B985892B8A2B8B2B5F
:1013A00019F0CE010E945708C801DF91CF911F911B
:1013B0000F910C94F300CF92DF92EF92FF920F9374
:1013C0001F93CF93DF93EC016A017B018A859B8594
:1013D000892BD9F1CE010E94B90988E2C816D1043F
:1013E000E104F104F8F490E080E00E94E2018C0155
:1013F00090E080E00E94E201801B910BB0E0A0E051
:101400008C159D05AE05BF0598F3EA85FB858C8597
:101410009D85DF91CF911F910F91FF90EF90DF900D
:10142000CF9009940E94D805AB01BC014C0D5D1D05
:101430006E1D7F1DCE01DF91CF911F910F91FF9007
:10144000EF90DF90CF900C94C008DF91CF911F9167
:101450000F91FF90EF90DF90CF9008958F929F9221
:10146000AF92BF92CF92DF92EF92FF920F931F93B2
:10147000CF93DF93EC014A015B0168017901C1144C
:10148000D104E104F10471F4DF91CF911F910F9128
:10149000FF90EF90DF90CF90BF90AF909F908F9094
:1014A0000C94DB090E94E7008C018A819B81AC814E
:1014B000BD81892B8A2B8B2B41F48E819F81A8853E
:1014C000B985892B8A2B8B2B19F0CE010E945708E6
:1014D000BE016A5F7F4FCE0102960E9406068A8196
:1014E0009B81AC81BD81880D991DAA1DBB1D8A837E
:1014F0009B83AC83BD834E815F8168857985C40EF3
:10150000D51EE61EF71E88159905AA05BB05B0F085
:10151000CE82DF82E886F986CE010E944B06C801A2
:10152000DF91CF911F910F91FF90EF90DF90CF90BF
:10153000BF90AF909F908F900C94F3008FEFC81ADC
:10154000D80AE80AF80AE4CF0E94E700FFCF08951E
:10155000A8950FB6F894A895809160008861809353
:101560006000109260000FBE0C94C50C1F920F9289
:101570000FB60F9211242D9A68E670E080E00E9469
:1015800013030E94ED00A0919705B0919805CD91AD
:10159000CDBFDD91DEBFFF91EF91DF91CF91BF9184
:1015A000AF919F918F917F916F915F914F913F91FB
:1015B0002F911F910F91FF90EF90DF90CF90BF90F0
:1015C000AF909F908F907F906F905F904F903F90E3
:1015D0002F901F900F900FBE0F900895240F351F6E
:1015E000F90131974FEA408331974EEF408340E352
:1015F00054E03197408331975083319780833197FE
:10160000908331971082319780E8808331971082E0
:10161000C9014F971292E817F907E1F7F901B0975E
:101620006083319770838AE182938F5F8032E1F724
:10163000C901889708950E944C030E94C10A0E9424
:10164000FD00892B09F05AC00F920FB6F8940F9243
:101650001F9211242F923F924F925F926F927F922E
:101660008F929F92AF92BF92CF92DF92EF92FF92B2
:101670000F931F932F933F934F935F936F937F939A
:101680008F939F93AF93BF93CF93DF93EF93FF938A
:10169000A0919705B09198050DB60D920EB60D92DA
:1016A0000E944C03A0919705B0919805CD91CDBFB4
:1016B000DD91DEBFFF91EF91DF91CF91BF91AF91AF
:1016C0009F918F917F916F915F914F913F912F915A
:1016D0001F910F91FF90EF90DF90CF90BF90AF9050
:1016E0009F908F907F906F905F904F903F902F9042
:1016F0001F900F900FBE0F900895089581E090E025
:101700009093DC058093DB0508950F920FB6F89453
:101710000F921F9211242F923F924F925F926F92DD
:101720007F928F929F92AF92BF92CF92DF92EF9271
:10173000FF920F931F932F933F934F935F936F935A
:101740007F938F939F93AF93BF93CF93DF93EF9349
:10175000FF93A0919705B09198050DB60D920EB626
:101760000D920E944C03A0919705B0919805CD91E0
:10177000CDBFDD91DEBFFF91EF91DF91CF91BF91A2
:10178000AF919F918F917F916F915F914F913F9119
:101790002F911F910F91FF90EF90DF90CF90BF900E
:1017A000AF909F908F907F906F905F904F903F9001
:1017B0002F901F900F900FBE0F90189508950C94C6
:1017C000AB08CF93DF930F92CDB7DEB761E070E047
:1017D000CE0101960E94B20C8981082E000C990B53
:1017E0000F90DF91CF910895CF93DF930F92CDB7F4
:1017F000DEB7898361E070E0CE0101960E94B80CEB
:1018000090E080E00F90DF91CF9108950E94A10CAD
:10181000EFE2F6E08EE191E09383828380E191E054
:101820009183808383ED91E00C94B50D63E085E1B5
:101830000E9401012D980895EF92FF920F931F933C
:10184000CF93DF93EC018B010E94E7007C0188813C
:101850009981892B89F48FEF9FEF99838883C70142
:101860000E94F30001E010E0C801DF91CF911F91C9
:101870000F91FF90EF90089501151105F1F000917F
:1018800097051091980562E0C8010E948B0388813A
:101890009981019669F4C801069699838883F801B5
:1018A00017821682C7010E94F3000E941F0BDACF35
:1018B000B801CE010E946D04F5CFC7010E94F3006C
:1018C000D3CFEF92FF920F931F93CF93DF938C01AF
:1018D0000E94E7007C01F801C081D181209749F482
:1018E000C701DF91CF911F910F91FF90EF900C9462
:1018F000F300CF3FDC0721F4F80111821082F0CF12
:1019000088819981F8019183808326976BE0CE01CD
:101910000E948B03F80180819181892B21F48FEF44
:101920009FEF91838083CB81D0E0C7010E94F300B9
:10193000CE01DF91CF911F910F91FF90EF900C940A
:1019400016040F931F930CE211E026EC3CE040E8F4
:1019500055E260E070E090E080E00E943C021F9160
:101960000F910895AB01BC018CE291E00C94D80C6E
:10197000CF93DF93EB01AB01BC0190E080E00E94CC
:101980008202CE01DF91CF91089508950F931F93A6
:10199000CF93DF93EC010E943B0D8C01CE010896A2
:1019A0000E94610CC801DF91CF911F910F910895A2
:1019B000CF92DF92EF92FF920F931F93CF93DF931B
:1019C000EC018B017A016C0188E0C80ED11CA701E3
:1019D000B801CE010E94100D009749F0DF91CF9120
:1019E0001F910F91FF90EF90DF90CF90089561E0ED
:1019F00070E0C6010E941C0CEACFFC0120813181FD
:101A000044815581CA0101969583848382819381A3
:101A1000019784239523820F931FFC0180810895F1
:101A2000CF92DF92EF92FF920F931F93CF93DF93AA
:101A30007C016A018A010115110541F0F701248139
:101A40003581868197812817390761F4C601801B8B
:101A5000910BDF91CF911F910F91FF90EF90DF904D
:101A6000CF900895EB01C7010E94FD0C89930150AE
:101A70001109BE01E0CFFC01868197814481558127
:101A800022813381841B950B8217930799F0808103
:101A9000918146815781DA011196B783A68321503F
:101AA000310924233523280F391FF901608390E081
:101AB00080E008958FEF9FEF0895A1E21A2EAA1BF0
:101AC000BB1BFD010DC0AA1FBB1FEE1FFF1FA217EE
:101AD000B307E407F50720F0A21BB30BE40BF50BEB
:101AE000661F771F881F991F1A9469F76095709574
:101AF000809590959B01AC01BD01CF0108950E9496
:101B0000900DA59F900DB49F900DA49F800D911DE9
:101B100011240895EE0FFF1F0590F491E02D099414
:101B2000A29FB001B39FC001A39F700D811D11241E
:101B3000911DB29F700D811D1124911D0895B0E07B
:101B4000A0E0E5EAFDE00C946010AE014B5F5F4F52
:101B5000FA0161917191AF01809131069091320645
:101B60000E94E10DE2E00C947C100F931F93CF9341
:101B7000DF93E0913106F0913206238110E000E01E
:101B800021FD0EC00FEF1FEFC801DF91CF911F9114
:101B90000F9108950995892B11F00FEF1FEFCE01DA
:101BA000EC0189916091310670913206DB01189643
:101BB000ED91FC918111EECF8AE00995892B21F3FB
:101BC000E1CFABE0B0E0E7EEFDE00C9450107C011B
:101BD0003B018A01FC0117821682838181FFB9C112
:101BE0009AE0292ECE0101965C01F7019381F30161
:101BF00093FD859193FF81913F01882309F446C1AC
:101C0000853239F493FD859193FF81913F018532AF
:101C100029F4B70190E00E94C20FE7CF912C412C2C
:101C2000512CFFE1F51538F08B3209F188F4803240
:101C300001F1833221F157FC3AC020ED280F2A3000
:101C400040F556FE1FC0929C200D1124922E06C016
:101C50008D3291F0803379F7689450F8F30193FD59
:101C6000859193FF81913F018111DBCF20C0689462
:101C700051F8689452F8F2CF689453F8EFCF689413
:101C800054F8ECCF429C200D1124422E689455F854
:101C9000E5CF8E3229F456FCF9C0689456F8DECFB1
:101CA0008C3619F4689457F8D9CF8836B9F2982F42
:101CB0009F7D95549330C0F08336A1F18337C1F1F5
:101CC000833509F05BC0F801C190D1908F01692D77
:101CD00070E056FC02C06FEF7FEFC6010E94AC0FB0
:101CE0004C01689457F80AC00C5F1F4F2FE32983FB
:101CF00088248394912C6501E89457F853FC04C020
:101D00004814190409F018F5342C8114910431F5A4
:101D1000332009F46ACFB70180E290E00E94C20F3D
:101D20003A94F6CFF801808189830E5F1F4FE0CF90
:101D3000F801C190D1908F01692D70E056FC02C06E
:101D40006FEF7FEFC6010E94B70F4C01D5CFB701EF
:101D500080E290E00E94C20F4A94D2CFF60157FC75
:101D6000859157FE81916F01B70190E00E94C20FEB
:101D700031103A94F1E08F1A9108C7CF843619F0E8
:101D8000893609F074C0F80157FE6AC061917191FB
:101D9000819191918F01252D2F76D22E97FF09C029
:101DA00090958095709561957F4F8F4F9F4F689468
:101DB000D7F82AE030E0A5010E94F20FC82ECA1819
:101DC0008C2C5D2CD6FE0CC0E89450F8C91440F45D
:101DD000D4FE05C0D2FC03C0FD2DFE7E5F2E892CF3
:101DE00054FE8FC0FE01EC0DF11D8081803309F09F
:101DF00081C0252D297E522E852D8870382E53FCCA
:101E00008FC050FE89C09C2C841418F44C0C942C68
:101E1000981854FE8BC0B70180E390E00E94C20F77
:101E200052FE09C088E790E051FE02C088E590E0CC
:101E3000B7010E94C20FC91408F484C0CA94D12CFF
:101E40009FEFC91AD90ACA0CDB1CF60182916F01F7
:101E5000B70190E00E94C20FAC14BD04B1F758CF97
:101E600061917191072E000C880B990B93CFD52CA3
:101E7000E894D4F82AE030E0853739F1952D997F40
:101E8000D92E8F3601F148F48835A9F0F701868103
:101E900097812B96E2E10C946C10803749F08837DB
:101EA000A9F7D4FE02C06894D2F820E130E00DC05A
:101EB0006894D4F8F6CF54FE03C0E92FE660DE2E16
:101EC00020E132E002C028E030E0F801D7FE0DC08A
:101ED00061917191819191918F01A5010E94F20F01
:101EE000C82ECA18E894D7F86BCF6191719190E031
:101EF00080E0F2CF52FC02C083947ECF839483941F
:101F00007BCF852D867809F477CFF6CFB70180E2B5
:101F100090E00E94C20F83948414C0F3312C79CFD7
:101F2000342C3818841408F474CFF8CF852D8678B3
:101F300009F481CF8BE251FE80E257FC8DE2B701BC
:101F400090E077CFB70180E390E00E94C20F9A94AF
:101F500072CF8FEF9FEF9DCFFC01059061507040D5
:101F60000110D8F7809590958E0F9F1F0895FC0162
:101F70006150704001900110D8F7809590958E0FB8
:101F80009F1F08950F931F93CF93DF93182F092F4F
:101F9000EB018B8181FD09C01FEF0FEF812F902F87
:101FA000DF91CF911F910F91089582FF14C02E8170
:101FB0003F818C819D81281739073CF4E881F981A4
:101FC000CF0101969983888310838E819F8101962A
:101FD0009F838E83E3CFE885F985812F0995892B2F
:101FE000A1F3DACFFA01AA27283051F1203181F18B
:101FF000E8946F936E7F6E5F7F4F8F4F9F4FAF4F11
:10200000B1E03ED0B4E03CD0670F781F891F9A1F23
:10201000A11D680F791F8A1F911DA11D6A0F711DD7
:10202000811D911DA11D20D009F468943F912AE0E3
:10203000269F11243019305D3193DEF6CF010895CB
:10204000462F4770405D4193B3E00FD0C9F7F6CFFC
:10205000462F4F70405D4A3318F0495D31FD4052C4
:10206000419302D0A9F7EACFB4E0A695979587955A
:1020700077956795BA95C9F7009761057105089539
:102080009B01AC010A2E06945795479537952795E5
:10209000BA95C9F7620F731F841F951FA01D08957D
:1020A0002F923F924F925F926F927F928F929F9268
:1020B000AF92BF92CF92DF92EF92FF920F931F9356
:1020C000CF93DF93CDB7DEB7CA1BDB0B0FB6F89407
:1020D000DEBF0FBECDBF09942A88398848885F8447
:1020E0006E847D848C849B84AA84B984C884DF80B8
:1020F000EE80FD800C811B81AA81B981CE0FD11D9C
:102100000FB6F894DEBF0FBECDBFED010895F89471
:02211000FFCFFF
:1021120080006F00360000000000000076017B01A5
:1021220000000001000000000000E10B00000000C0
:10213200000200000000F40B00000000EF05400068
:10214200000000000000000306080A6D61696E28A5
:10215200293A20546869732069732052494F5421E7
:10216200202856657273696F6E3A20323031392EEB
:1021720030342D646576656C2D3438392D673066C0
:10218200346535290A0069646C65006D61696E0009
:10219200537461636B20506F696E7465723A2030BC
:1021A20078253034780A002A2A2A2052494F5420AE
:1021B2006B65726E656C2070616E69633A0A257395
:1021C2000A0A002A2A2A2068616C7465642E0A0AA7
:1021D200004641494C454420415353455254494FCE
:0621E2004E2E000C00006F
:0400000300000136C2
:00000001FF
